S0110000706F6E675F67616D652E7372656366
S11300000C9499010C94B6010C94B6010C94B601AD
S11300100C94B6010C94E6030C94B6010C94B6014E
S11300200C94B6010C949D100C94B6010C94B6017A
S11300300C94B6010C94B6010C94B6010C94B60160
S11300400C943C110C94B6010C94B6010C94B601BA
S11300500C946F0E0C942D0E0C94B6010C94B601F6
S11300600C94D3020C94B6010C94B6010C94B60112
S11300700C94B6010C94B6010C94B601E50C9B0CDF
S1130080EA0CEA0CEA0CEA0CEA0CEA0C8F0C930C6E
S1130090E80CEA0C970CA70CEA0CEA0C9F0CEA0C8F
S11300A0EA0CEA0CA30C506C61796572203220537F
S11300B0636F72653A20256400506C617965722023
S11300C0312053636F72653A2025640047414D45E2
S11300D020504155534544210043757272656E7436
S11300E02042616C6C2053706565643A202573006E
S11300F05072657373206120627574746F6E206F23
S113010072202773272F27532720746F207374615D
S113011072742061206E65772067616D65004741C8
S11301204D45204F564552004353534532303130EC
S113013020413220627920416C657820446F6E6ED4
S1130140656C6C616E202D2034363936333033378C
S113015000504F4E4700D2010800D201D201BA022A
S113016002001704A40308007003100375050200BD
S113017017040400A40308007003100375050200AB
S113018017040400A40308007003A403100302006E
S11301900B0208000B020B02BA0202001704A403AC
S11301A00800700310037505020017040400A4037B
S11301B00800700310037505020017040400A4036B
S11301C008007003A403100302000B02F8FF0B02E3
S11301D010004B02FCFF4B020800A4037003100341
S11301E0BA02BA0210037003100304004B020800A1
S11301F0930204000B02F8FF0B0210004B02FCFFF9
S11302004B020800A40370031003BA021704F8FF9A
S11302101003100010030200010008000B024B023F
S1130220FCFF4B020800A40370031003BA02BA02D5
S113023010037003100304004B020800930204002F
S11302401704F8FF1704100075050400DD04080006
S11302505504040017040800A40304003F03080025
S113026010030400BA0208001704010000004D0A3C
S11302700C004D0A01004D0A01002D084D0A010031
S1130280400C0100010001002006010001000100F2
S11302902D080100010020060100010027050100CE
S11302A00100E0060100B80701004907E00601006B
S11302B0200609004D0A400CC00D0C000100EA0A9A
S11302C0400C01004D0A01002D082D09B80701005A
S11302D001002D080100010020060100010027058E
S11302E001000100E0060100B80701004907E0062B
S11302F00100200609004D0A400CC00D0C0001004D
S1130300EA0A400C01004D0A01002D082D09B80726
S1130310010001002D0800001B5B3F323568001B03
S11303205B4B001B5B324A001B5B25643B25644826
S1130330000011241FBECFEFD8E0DEBFCDBF11E017
S1130340A0E0B1E0E0E4FEE202C005900D92AC361C
S1130350B107D9F723E0ACE6B1E001C01D92A030AB
S1130360B207E1F70E945C0D0C941E170C94000078
S1130370FC010FB6F8946091FC027091FD0280912B
S1130380FE029091FF020FBE309721F060837183CB
S113039082839383089580E480937C00EAE7F0E00D
S11303A086E8808380818860808380818061808307
S11303B008950F931F93FC01E61BF70B021B130B0D
S11303C0E09FC001E19F900DF09F900D1124FA0170
S11303D0E61BF70BBF010E94FD12C901860F971F90
S11303E01F910F9108950F931F930E942C116093F6
S11303F07701709378018093790190937A01009149
S11304007301109174012091750130917601601788
S1130410710782079307C0F0EAE7F0E08081806407
S113042080838091770190917801A0917901B091B6
S11304307A01C296A11DB11D80937301909374013A
S1130440A0937501B093760180917B01882309F410
S1130450A6C080917C0190917D0103E010E020E032
S113046030E040E054E060E070E00E94D901BC015B
S11304706150710980916D0190916E01681779073F
S113048059F010926C0110926F0110927001109249
S11304907101109272011BC080916C01811117C00F
S11304A081E080936C018091770190917801A09113
S11304B07901B0917A018C509E4FAF4FBF4F80931A
S11304C06F0190937001A0937101B09372018091B8
S11304D06F0190917001A0917101B0917201009728
S11304E0A105B10569F0009177011091780120917F
S11304F0790130917A01081719072A073B0728F177
S11305006130710531F06F3F8FEF780721F080E0A3
S113051003C082E001C081E090916C019923B1F0A5
S113052000917701109178012091790130917A013D
S11305300C591F4F2F4F3F4F00936F0110937001C1
S1130540209371013093720101C080E0AFB7F89439
S113055091E014C0292F30E0A90141505109220F24
S1130560331FF901E458FE4F20813181FA01EE0F67
S1130570FF1FE458FE4F318320839F5F20917B014E
S1130580921740F390917B01915090937B01AA23A1
S11305900CF4789470936E0160936D0101C080E057
S11305A01F910F9108951F920F920FB60F9211246D
S11305B02F933F938F93EF93FF9320917800309183
S11305C0790080917B01843068F4E0917B0181E0C3
S11305D08E0F80937B01F0E0EE0FFF1FE458FE4F77
S11305E031832083FF91EF918F913F912F910F9051
S11305F00FBE0F901F901895E8E6F0E080818260AE
S113060080838BB382608BBBECE6F0E080818F60EB
S11306108083109288010895CF92DF92EF92FF9227
S11306200E942C116093840170938501809386014C
S1130630909387018091880118160CF03FC0909127
S11306409901E92FF0E081E001C0880F9A95EAF75B
S113065040918401509185016091860170918701D8
S11306604C505E4F6F4F7F4FEE0FFF1FEE0FFF1F7B
S1130670E757FE4F40835183628373836FB7F894C7
S113068091E009C0F901E756FE4F4081F901E856AF
S1130690FE4F40839F5F292F30E040918801042E54
S11306A0000C550B241735076CF390918801915079
S11306B09093880166231CF4789401C080E090E054
S11306C07DC0292F30E0F901EE0FFF1FEE0FFF1F51
S11306D0E757FE4F4081518162817381452B462B40
S11306E0472B09F445C040919E0150E0092E02C0F9
S11306F0559547950A94E2F740FF3AC0F901EE0F89
S1130700FF1FEE0FFF1FE757FE4FC080D180E2802E
S1130710F38040918401509185016091860170912C
S113072087014C155D056E057F0508F446C041E060
S113073050E0092E02C0440F551F0A94E2F7842B9F
S113074040918401509185016091860170918701E7
S11307504C595F4F6F4F7F4F220F331F220F331FB0
S1130760F901E757FE4F408351836283738325C0A9
S1130770F901EE0FFF1FEE0FFF1FE757FE4F4081F9
S1130780518162817381452B462B472BB1F04091F7
S11307909E0150E0022E02C0559547950A94E2F757
S11307A040FD0BC0220F331F220F331FF901E757FF
S11307B0FE4F10821182128213829F5F943008F4DC
S11307C080CFFF90EF90DF90CF9008951F920F920B
S11307D00FB60F9211242F933F934F935F936F9310
S11307E07F938F939F93AF93BF93EF93FF9383B1C3
S11307F08F7080939D010E942C11609384017093EB
S11308008501809386019093870180E027C09091B1
S11308108801943014F520919D0130E0082E02C027
S1130820359527950A94E2F720FF17C020919E0181
S113083030E0082E02C0359527950A94E2F720FD92
S11308400CC0E091880191E09E0F909388010E2ED8
S1130850000CFF0BE756FE4F80838F5F8430B8F2A5
S113086080919D0180939E01FF91EF91BF91AF9183
S11308709F918F917F916F915F914F913F912F91B4
S11308800F900FBE0F901F9018958091B20108959C
S11308909091B20181E089278093B2018823A1F06D
S11308A08091A6019091A701A091A801B091A901FE
S11308B08C599F4FAF4FBF4F8093AE019093AF01C0
S11308C0A093B001B093B1010895982F9595990F15
S11308D0990F990F9150890F89270895BF92CF924C
S11308E0DF92EF92FF920F931F93CF93DF9300D089
S11308F000D0CDB7DEB77C01CE0101960E94D70AA5
S11309008091A401DB808D1117C09091A5018C8189
S1130910981312C08091A6019091A701A091A801FB
S1130920B091A901843F9140A105B10528F48091BB
S1130930A001F701808336C01981F7010181812F5D
S1130940801B0E946504B82ECD2C812F8D0D801B39
S11309500E946504B81620F48FEFF701808322C04B
S11309609C818A8109C01C0D382F292F890F88305A
S113097018F09195832F821B1013F5CFF701808314
S113098089819A81AB81BC818093A2019093A30158
S1130990A093A401B093A501808191819093A101BA
S11309A08093A0010F900F900F900F90DF91CF9143
S11309B01F910F91FF90EF90DF90CF90BF9008951B
S11309C0CF93DF9300D0CDB7DEB70E942C11609394
S11309D0A6017093A7018093A8019093A90180E0D8
S11309E00E94E50A80939F010E944504882309F42C
S11309F043C080E00E94EC0A8A83CE0101960E94E3
S1130A006E044091A6015091A7016091A8017091D4
S1130A10A9018091AE019091AF01A091B001B09174
S1130A20B101481759076A077B0730F18981882388
S1130A307CF090919F0189172CF46FEF80E00E9465
S1130A40670806C0981724F461E080E00E946708F4
S1130A508091A6019091A701A091A801B091A9014C
S1130A6088539F4FAF4FBF4F8093AE019093AF0118
S1130A70A093B001B093B1010F900F90DF91CF918B
S1130A8008951F93CF93DF9300D0CDB7DEB70E94B4
S1130A902C116093A6017093A7018093A8019093F1
S1130AA0A9010E944504882309F444C00E94F30A62
S1130AB0182F81E00E94EC0A8A83CE0101960E94DD
S1130AC06E044091A6015091A7016091A801709114
S1130AD0A9018091AA019091AB01A091AC01B091C0
S1130AE0AD01481759076A077B0720F189818823DC
S1130AF06CF081172CF48FEF810F0E94B30706C0AE
S1130B00181724F481E0810F0E94B3078091A60195
S1130B109091A701A091A801B091A90188539F4F7A
S1130B20AF4FBF4F8093AA019093AB01A093AC0148
S1130B30B093AD010F900F90DF91CF911F91089565
S1130B400F931F93CF93DF93CDB7DEB728970FB6DC
S1130B50F894DEBF0FBECDBF0E94360B80E090E05C
S1130B6009C0E1E0F0E0EC0FFD1FE80FF91F25E3F9
S1130B702083019688309105A4F301E010E008C0B9
S1130B80BE016F5F7F4F802F0E94190B0F5F1F4FB5
S1130B9002301105ACF30EE010E008C0BE016F5F37
S1130BA07F4F802F0E94190B0F5F1F4F0F301105CD
S1130BB0ACF328960FB6F894DEBF0FBECDBFDF911D
S1130BC0CF911F910F9108951F93CF93DF93CDB7CA
S1130BD0DEB728970FB6F894DEBF0FBECDBF0E94D4
S1130BE0360B10E029C0E12FF0E0E75CFE4F908166
S1130BF090FF02C02FE001C020EF87E013C09923CB
S1130C0044F4E1E0F0E0EC0FFD1FE80FF11D208358
S1130C1007C0E1E0F0E0EC0FFD1FE80FF11D1082CA
S1130C20990F81508111EBCF1982BE016F5F7F4F05
S1130C30812F0E94190B1F5F1031A8F24FE064E06E
S1130C408EE00E94FA0A28960FB6F894DEBF0FBE13
S1130C50CDBFDF91CF911F9108951F93CF93DF9361
S1130C60CDB7DEB768970FB6F894DEBF0FBECDBF21
S1130C708C3008F064C020E017C0E22FF0E0EE0FE3
S1130C80FF1FEE0FFF1FEE0FFF1F41E050E04C0F60
S1130C905D1FE40FF51FE90FF11D10829F5F01C076
S1130CA090E0983050F32F5F2330D0F390EF9F877C
S1130CB09A879DEF980F963018F090EF9F8B02C0A3
S1130CC090EF9F83863018F490EF9A8302C090EFE0
S1130CD09A8B853011F08B3019F48FE08E8715C014
S1130CE0882331F0843021F0863011F08A3019F4F1
S1130CF08FE08D870AC0813031F0833021F0873056
S1130D0011F0893021F48FE08C8710E016C08FE059
S1130D108B87FBCF612F70E0660F771F660F771FFD
S1130D20660F771F81E090E08C0F9D1F680F791F7D
S1130D308DE0810F0E94190B1F5F133058F36896E2
S1130D400FB6F894DEBF0FBECDBFDF91CF911F91D8
S1130D500895423031F0443031F0413031F040E018
S1130D6005C04FE003C040E201C040EF8E5F0E9427
S1130D70FA0A0895DF92EF92FF920F931F93CF9395
S1130D80DF93D82EE62EE42FF0E0EE0FFF1FEB5D8D
S1130D90FE4F00811181D0E0F12CC0E01FC081E042
S1130DA090E00D2E02C0880F991F0A94E2F7802369
S1130DB09123892B39F04CE36E2D6F198D2D8C1BEB
S1130DC00E94FA0AC23009F4F3948C2F90E0019641
S1130DD063E070E00E941113C82FDF5FD031F8F296
S1130DE0DF91CF911F910F91FF90EF90DF900895C5
S1130DF0FF920F931F93CF93DF93F82E062FD0E02B
S1130E0010E0C0E013C040E0602F611B8F2D8C1BED
S1130E100E94FA0AC23009F41F5F8C2F90E00196F9
S1130E2063E070E00E941113C82FDF5FD03158F3E4
S1130E30DF91CF911F910F91FF900895CF93DF938E
S1130E40CDB7DEB728970FB6F894DEBF0FBECDBF7F
S1130E50FE01319698E0DF011D929A95E9F790E042
S1130E6009C0E1E0F0E0EC0FFD1FE90FF11D2FEFE9
S1130E7020839F5F9617A8F3BE016F5F7F4F0E9488
S1130E80190B28960FB6F894DEBF0FBECDBFDF91C5
S1130E90CF910895CF93DF93CDB7DEB728970FB6E0
S1130EA0F894DEBF0FBECDBFBE016F5F7F4F98E0E9
S1130EB0FB0111929A95E9F70E94190B28960FB637
S1130EC0F894DEBF0FBECDBFDF91CF910895CF93CD
S1130ED0DF93C091B9010C2E000CDD0B12C0809180
S1130EE0BD01082E000C990BC817D90749F00196CB
S1130EF0C817D90729F044E06C2F8BE00E94A9069B
S1130F0021968091B901082E000C990B0296C817FE
S1130F10D9072CF3DF91CF910895CF93DF93C0913C
S1130F20B9010C2E000CDD0B12C08091BD01082EFE
S1130F30000C990BC817D90749F00196C817D907AF
S1130F4029F040E06C2F8BE00E94A9062196809145
S1130F50B901082E000C990B0296C817D9072CF377
S1130F60DF91CF910895CF93C82F0E948D07C0932E
S1130F70B9010E946707CF910895EF92FF920F93F2
S1130F801F93CF93DF93E82E90E0FC01E75AFE4FC6
S1130F90F080FC01E454FE4F0081002E000C110B84
S1130FA0E80106C041E06C2F8F2D0E94A90621960E
S1130FB0C8010296C817D907ACF30E9445048823D8
S1130FC039F081E0E81204C00E948D070E9467078F
S1130FD0DF91CF911F910F91FF90EF900895FF92B1
S1130FE00F931F93CF93DF9390E0FC01E75AFE4FDA
S1130FF0F080FC01E454FE4F0081002E000C110B24
S1131000E80106C040E06C2F8F2D0E94A9062196AE
S1131010C8010296C817D907ACF3DF91CF911F918D
S11310200F91FF9008958091D80108959091D8016F
S113103081E089278093D801882391F068E070E0EB
S11310408AE090E00E94EA108CEC90E09F938F93EA
S11310500E940E148BB188608BB90F900F900BC057
S113106068E070E08AE090E00E94EA100E940411B7
S11310708BB1877F8BB98091D8010895FB01808162
S1131080883048F08091D40181958093D401909167
S1131090D501890F80830895841315C0062E000C92
S11310A0770BCB0108C0422F022E000C550B84177E
S11310B0950759F00196AB014E5F5F4F8417950772
S11310C094F380E0089580E0089581E008950F93FB
S11310D01F93CF93DF93082F082E000C110BF801F8
S11310E0E454FE4FC081C60F2C2F0C2E000C330B82
S11310F02E5F3F4F29303105D4F4CC23C4F0D82FD0
S11311002091D5014091D6016C2FF801E75AFE4F8A
S113111080810E944C0881110AC08D2F0E94EF0724
S1131120F801E454FE4FC0838D2F0E94BD07DF9168
S1131130CF911F910F910895CF93DF93C82F0E94F1
S11311401308811127C0DC2FD170C0FF06C0C1FD78
S113115004C06FEF81E00E946708C1FF06C0D1118F
S113116004C061E081E00E9467080E944504811187
S113117011C0DC2FD470C2FF05C0C3FD03C06FEFE4
S11311800E946708C3FF06C0D11104C061E080E07B
S11311900E946708DF91CF910895242F082E000C38
S11311A0990BFC01E75AFE4FDC01A454BE4F8C910D
S11311B0462F682F80810E944C080895CF93DF93B7
S11311C0D82FC62F0E94B8136C2FCC0F770B6F5FEC
S11311D07F4F6D1B7109D7FD73950E9411138D0FFD
S11311E0DF91CF91089561E080E00E94DE088823BA
S11311F011F081E008958FEF089561E08FEF0E9470
S1131200DE08089540E06091D5018091D6010E94E6
S1131210A90685E08093D60184E08093D5010E94DD
S1131220F3088093D7010E94FD088093D4011092A3
S1131230B8010895CF93DF936AE070E08AE090E00C
S11312400E94EA10CAEBD1E08881282F082E000CF6
S1131250330B3F938F9389EB90E09F938F930E947E
S11312600E146CE070E08AE090E00E94EA1089813C
S1131270282F082E000C330B3F938F9386EA90E0BF
S11312809F938F930E940E148DB79EB708960FB646
S1131290F8949EBF0FBE8DBFDF91CF910895E82FC4
S11312A0880FFF0BE654FE4F80810895CF93C82F1B
S11312B00E944F09EC2FCC0FFF0BE95AFE4F482F29
S11312C066E080810E94BA06CF910895E82F880FC6
S11312D0FF0BE95AFE4F66E080810E94F8060895EC
S11312E00F931F938091B4019091B501A091B60121
S11312F0B091B701892B8A2B8B2B09F10E942C11F9
S11313000091B4011091B5012091B6013091B7015B
S1131310601771078207930790F01092B40110923E
S1131320B5011092B6011092B7010E9402090E9401
S1131330160880E00E94660981E00E946609809197
S1131340BA01833031F08091BB01833021F481E014
S113135003C081E001C080E01F910F910895082E21
S1131360000C990BFC01EC5FFE4F2FEF2083FC0176
S1131370EB5AFE4F80810E944A07089580E00E9444
S1131380AF0981E00E94AF0908950E94A005ECEB2B
S1131390F1E083E080838183EAEBF1E01082118243
S11313A00E941A090E94991080E00E94BD0781E002
S11313B00E94BD0780E00E94660981E00E946609E0
S11313C00E94BE090E942C11CB010E94BD130E94F1
S11313D0020942E06091D5018091D6010E94A906DC
S11313E08AB188608AB908959091B80191112CC08E
S11313F0E82F0E2E000CFF0BE654FE4F80818F5F0A
S1131400808381E08093B8010E94BE090E941A097A
S113141080E00E94560981E00E9456090E947009EA
S1131420811112C00E9416080E942C11DC01CB010C
S113143084529A4FAF4FBF4F8093B4019093B5013C
S1131440A093B601B093B7010895082E000C990B30
S1131450FC01EC5FFE4F60816F5F608367706F5FBC
S1131460FC01EB5AFE4F80810E941E070895CF9322
S1131470DF93C82FD62F462F682F80E00E94CD0817
S1131480882329F080E00E94250A81E00BC04D2FBB
S11314906C2F81E00E94CD08882321F081E00E9416
S11314A0250A81E0DF91CF9108950F931F93CF9385
S11314B0DF93EC018B010E943E08F8016081888172
S11314C00E94370A8823F1F00E94FD088093D4011A
S11314D08091D70181958093D7019091D601890F8E
S11314E088839091D5018091D401890FF80180837C
S11314F064E670E08DE298E00E940C0FB801CE0122
S11315000E943E0888818C302CF080E00E94F4090F
S113151081E008C088232CF481E00E94F40981E072
S113152001C080E0DF91CF911F910F910895CF9377
S1131530DF9300D0CDB7DEB79091D6018091D7016B
S1131540890F89839091D5018091D401890F8A8371
S1131550BE016E5F7F4FCE0101960E94550A811134
S113156010C040E06091D5018091D6010E94A90687
S113157089818093D6016A816093D50142E00E94FB
S1131580A9060F900F90DF91CF910895E091B301D8
S1131590F0E0EE0FFF1FEE0FFF1FE75BFE4F6081D1
S11315A071818281938108958093B3010895FC0130
S11315B08091D60180838091D50181838091D70168
S11315C082838091D40183830895E82F880FFF0BD1
S11315D0E454FE4F80810895E82F880FFF0BE75AEB
S11315E0FE4F808108958091B901089580E80E949A
S11315F0521008951F93CF93DF938031B0F4683075
S1131600A0F4142FC62FD82F81E00E947E106C2FD7
S1131610677080E1689F900111248D2F8F70822B59
S11316200E947E10812F0E947E10DF91CF911F9126
S113163008950F931F93CF938031A0F48B01C82F8B
S113164083E00E947E108C2F8F700E947E10C0E079
S113165007C0F801EC0FF11D80810E947E10CF5F5E
S1131660C830B8F3CF911F910F9108958FE00E9475
S11316707E1008950E94F60A0E94FC020E94CB018B
S113168040E060E07BE480E090E00E94CD0D0E94A9
S1131690161180E090E00E94B801CB010E94BD13B6
S11316A00E9484100E94030F789408958F929F9251
S11316B0AF92BF92CF92DF92EF92FF92CF93DF93DC
S11316C00E94FB100E940D116AE070E08AE090E035
S11316D00E94EA1081E591E09F938F930E940E147B
S11316E06CE070E08AE090E00E94EA1088E291E009
S11316F09F938F930E940E140E94E4050E942C1164
S11317004B015C010E94670F0F900F900F900F9098
S1131710D0E00E941B0E90E00E94C813833799F119
S11317208D3611F40E948F0F0E940C03C82F0E9463
S1131730F3018C2B41F50E942C116B017C01DC011F
S1131740CB0188199909AA09BB09853F9140A105D4
S1131750B10568F08D2F0E942D068D2F90E0019623
S11317606CE070E00E941113D82F460157010E94CB
S1131770990F81110E949C0F0E94990F8111C9CF6A
S11317800E94670FC6CF0E94730FDF91CF91FF9025
S1131790EF90DF90CF90BF90AF909F908F9008957F
S11317A06EE070E08AE090E00E94EA108EE191E041
S11317B09F938F930E940E146FE070E08AE090E094
S11317C00E94EA1080EF90E09F938F930E940E1482
S11317D00E946D0F0F900F900F900F900EC00E94FB
S11317E01B0E90E00E94C8138D3611F40E948F0FD7
S11317F00E94990F81110E949C0F0E940C03811179
S113180004C00E94C20E882351F30E94730F0895EE
S1131810CF93DF9300D000D01F92CDB7DEB795E011
S1131820E2E6F1E0DE01119601900D929A95E1F75E
S1131830813061F0823099F485E0E7E6F1E0DE0181
S1131840119601900D928A95E1F709C087E0EBE5C6
S1131850F1E0DE01119601900D928A95E1F765E0C1
S113186070E08AE090E00E94EA100E940411CE0128
S113187001969F938F9389ED90E09F938F930E949D
S11318800E140F900F900F900F900F900F900F90D9
S11318900F900F90DF91CF9108950E94FB100E944A
S11318A0C5090E94C60A862F0E94080C0E940C03D8
S11318B00E94280E0E94F30108959091E101892B62
S11318C08093E1010895CF93C82F823359F0833375
S11318D081F08133A1F480E00E94D40A80E00E9468
S11318E0080C0DC081E00E94D40A81E00E94080C1B
S11318F006C082E00E94D40A82E00E94080C8C2F69
S113190090E00E94C813FC01FF27E356F109E5317A
S1131910F10508F05FC0E25CFF4F0C94661381E0B0
S11319200E945D0C57C081E00E945D0C53C082E0B0
S11319300E945D0C4FC084E00E945D0C4BC084E0AB
S11319400E945D0C47C088E00E945D0C43C00E9469
S113195016088823E9F08091DD019091DE01A091C1
S1131960DF01B091E0014091BE015091BF0160914F
S1131970C0017091C101841B950BA60BB70B80931A
S1131980D9019093DA01A093DB01B093DC0122C06A
S11319904091BE015091BF016091C0017091C1019D
S11319A08091D9019091DA01A091DB01B091DC0121
S11319B0840F951FA61FB71F8093DD019093DE014E
S11319C0A093DF01B093E00105C00E94480402C067
S11319D00E948F0FCF9108950F931F930E942C1193
S11319E06093DD017093DE018093DF019093E00149
S11319F059C00E940C038093E1010E94F30190916D
S1131A00E101892B8093E1010E941B0E0E94630C6B
S1131A108091E1010E949C080E94E0040E9441051B
S1131A200E94990F81110E949C0F0E942C116093B7
S1131A30BE017093BF018093C0019093C1010E94C5
S1131A40130881112FC04091BE015091BF016091D4
S1131A50C0017091C1018091DD019091DE01A091DE
S1131A60DF01B091E001481759076A077B07D0F0FE
S1131A700E94970A0E94C60A0091BE011091BF01FC
S1131A802091C0013091C101DC01CB01800F911F75
S1131A90A21FB31F8093DD019093DE01A093DF01A9
S1131AA0B093E0010E947009882309F4A2CF0E9438
S1131AB0730F1F910F9108950E943A0B0E94560BC9
S1131AC00E944D0C0E94EC0C0E94D00BF9CFCF93D6
S1131AD0C82F8A3019F48DE00E94670D9FB7907863
S1131AE002C0992329F18091E3018F3FD1F3F89447
S1131AF0E091E20181E08E0F8093E201F0E0EC518D
S1131B00FE4FC0838091E3018F5F8093E301809156
S1131B10E2018F3F11F41092E201E1ECF0E08081E8
S1131B2080628083992339F0789480E090E005C046
S1131B3081E090E002C080E090E0CF910895809130
S1131B40F5028823E1F32FB72078F8948091E3021B
S1131B503091F50290E0831B91095AF4E091E3027D
S1131B608091F502F0E0E81BF109EC50FD4F808113
S1131B700AC0E091E3028091F502F0E0E81BF1096C
S1131B80EC51FD4F80819091F50291509093F502B4
S1131B90222309F0789490E008951092E2011092C3
S1131BA0E3011092E3021092F5021092F4024093C2
S1131BB0C201DC01CB01880F991FAA1FBB1F880F2C
S1131BC0991FAA1FBB1F9C01AD01220F331F441F85
S1131BD0551F60E072E18AE790E00E944713BA0162
S1131BE0A9014F5F5F4F6F4F7F4FDB01CA011AF4AA
S1131BF00196A11DB11DB595A79597958795019758
S1131C009093C5008093C400E1ECF0E088E1808308
S1131C10808180688083E6EFF2E086E091E0938340
S1131C2082839183808308959091F50281E09111DC
S1131C3001C080E008950E94140E882339F0809139
S1131C40F6029091F7020E94D01308958FEF089541
S1131C501092E3021092F50208951F920F920FB6AC
S1131C600F9211242F938F939F93EF93FF9380915F
S1131C70E301882329F18091E2012091E30190E0BE
S1131C80821B91095AF4E091E2018091E301F0E0B2
S1131C90E81BF109ED51FD4F90810AC0E091E2018A
S1131CA08091E301F0E0E81BF109EC51FE4F9081D3
S1131CB08091E30181508093E3019093C60005C0B5
S1131CC0E1ECF0E080818F7D8083FF91EF919F9123
S1131CD08F912F910F900FBE0F901F9018951F9208
S1131CE00F920FB60F9211242F933F934F935F934C
S1131CF06F937F938F939F93AF93BF93CF93EF9300
S1131D00FF93C091C6008091C201882349F080915D
S1131D10E3018F3F29F060E070E08C2F0E94670D93
S1131D208091F502803120F081E08093F40218C0A4
S1131D30CD3009F4CAE0E091E30281E08E0F809394
S1131D40E302F0E0EC51FD4FC0838091F5028F5F18
S1131D508093F5028091E302803111F41092E30242
S1131D60FF91EF91CF91BF91AF919F918F917F910F
S1131D706F915F914F913F912F910F900FBE0F90F4
S1131D801F9018950E941B0E90E00E94C81391E0CA
S1131D90833709F090E0892F08959C0140E050E0DA
S1131DA060E472E48FE090E00E942513C901089575
S1131DB0CF92DF92EF92FF926B017C01BA0180E037
S1131DC090E00E940212A70196010E94901220E066
S1131DD030E048EC52E40E9461110E94D311CB011F
S1131DE0FF90EF90DF90CF9008958AB180618AB917
S1131DF0E0E8F0E0808180628083E1E8F0E08081C7
S1131E0082608083089581E08093800080E18093E4
S1131E1081000E94F50E08950F931F93CF93DF93D3
S1131E202091C501211132C0EB0121E02093CC01A6
S1131E300E94CD0E8C016091140170E080E090E06E
S1131E400E940212A8010E94D80E01501109109399
S1131E50890000938800009729F410928B00109257
S1131E608A0005C0019790938B0080938A000E949A
S1131E70F50E209759F00E942C11C60FD71FD0934E
S1131E80C701C093C60181E08093CD01DF91CF915A
S1131E901F910F9108952091CC01211117C031E0B9
S1131EA03093CC019093CB018093CA01262F30E06C
S1131EB040E050E060E879EA83E090E00E94251376
S1131EC03093C9012093C8010E94F50E089568E774
S1131ED08EE692E00E944B0F08956CE686E591E051
S1131EE00E944B0F0895E1E8F0E080818D7F8083AC
S1131EF0E0E8F0E080818F7D808310928900109269
S1131F00880010928B0010928A0010928500109223
S1131F1084008AB18F7E8AB91092CC010895909181
S1131F20C50181E089278093C50181110E94730F47
S1131F3008958091CC010895CF92DF92EF92FF92A1
S1131F408091C5018111A9C0C090C601D090C7017C
S1131F50E12CF12C0E942C11C616D706E806F906CE
S1131F6008F09BC08091CD01882329F01092CD0107
S1131F700E94730F92C08091CA019091CB01FC0121
S1131F8025913491232B09F486C0FC0125913491C9
S1131F90790102969093CB018093CA01FC0145918B
S1131FA05491413251050CF03CC0FC0145915491CF
S1131FB041305105B1F1FC0145915491452B89F112
S1131FC0FC0145915491BA01141615065CF48091F4
S1131FD0C8019091C9010E94FD127093C4016093DD
S1131FE0C30116C066277727641B750B8091C8014F
S1131FF09091C9010E94FD12CB0177230CF4019644
S113200095958795860F971F9093C4018093C3017C
S11320108091CA019091CB0102969093CB01809359
S1132020CA01EA94EF2829F41092890010928800DA
S113203025C0C9010E94CD0E7C016091140170E09D
S113204080E090E00E940212A7010E94D80E21E0D5
S1132050E21AF108F0928900E0928800009729F4CE
S113206010928B0010928A0005C0019790938B0008
S113207080938A0010928500109284000E942C1193
S11320802091C3013091C401620F731F7093C70183
S11320906093C60102C00E94730FFF90EF90DF901F
S11320A0CF90089594B1906B94B995B1906195B91E
S11320B090E59CBD883021F0803211F0823019F413
S11320C091E09DBD01C01DBC803269F028F48830C8
S11320D071F0803161F00EC0803429F0803851F401
S11320E08CB581608CBD8CB582608CBD03C08CB511
S11320F081608CBD85B18F7E85B908958EBD0DB488
S113210007FEFDCF8EB508958FEF87B98AB184603D
S11321108AB98DE48093B30092E09093B00087E095
S11321208093B100E0E7F0E080818260808397BB18
S1132130089581E08093CF0108951F920F920FB606
S11321400F9211242F933F934F935F936F937F9339
S11321508F939F93AF93BF93EF93FF939091CE018F
S113216081E089278093CE018091CF01882301F1FA
S11321708091CE01811104C081E00E944F0903C007
S113218080E00E944F09E82F880FFF0BEB5EFE4FA3
S1132190808188B92BB19091CE01892F90E0880F6E
S11321A0991F880F991F922F9B7F892B8BB901C090
S11321B018B8FF91EF91BF91AF919F918F917F914B
S11321C06F915F914F913F912F910F900FBE0F90A0
S11321D01F9018959F938F937F936F9388E293E05A
S11321E09F938F930E940E140F900F900F900F9057
S11321F00F900F90089583E293E09F938F930E9432
S11322000E140F900F9008958FE193E09F938F9396
S11322100E940E140F900F90089588E193E09F930D
S11322208F930E940E140F900F9008951092D00176
S11322301092D1011092D2011092D30116BC8CE7F6
S113224087BD92E094BD83E085BDEEE6F0E0808139
S11322508260808395BB08958FB7282F2078F894E7
S11322606091D0017091D1018091D2019091D301FC
S1132270222309F0789408951F920F920FB60F92BB
S113228011248F939F93AF93BF938091D00190912A
S1132290D101A091D201B091D3010196A11DB11D2C
S11322A08093D0019093D101A093D201B093D30134
S11322B0BF91AF919F918F910F900FBE0F901F9080
S11322C018950E9475110C9456120E944F1258F0E2
S11322D00E94481240F029F45F3F29F00C943F1209
S11322E051110C948A120C9445120E94671268F3DF
S11322F09923B1F3552391F3951B550BBB27AA27BB
S113230062177307840738F09F5F5F4F220F331FF4
S1132310441FAA1FA9F335D00E2E3AF0E0E832D0BC
S113232091505040E695001CCAF72BD0FE2F29D0BF
S1132330660F771F881FBB1F261737074807AB0791
S1132340B0E809F0BB0B802DBF01FF2793585F4F06
S11323503AF09E3F510578F00C943F120C948A1287
S11323605F3FE4F3983ED4F3869577956795B795E8
S1132370F7959F5FC9F7880F911D9695879597F9F3
S11323800895E1E0660F771F881FBB1F621773076C
S11323908407BA0720F0621B730B840BBA0BEE1F81
S11323A088F7E09508950E946F1288F09F5798F07F
S11323B0B92F9927B751B0F0E1F0660F771F881F46
S11323C0991F1AF0BA95C9F714C0B13091F00E9460
S11323D08912B1E008950C948912672F782F882709
S11323E0B85F39F0B93FCCF3869577956795B39587
S11323F0D9F73EF490958095709561957F4F8F4FF6
S11324009F4F0895E89409C097FB3EF490958095FA
S1132410709561957F4F8F4F9F4F9923A9F0F92FA6
S113242096E9BB279395F695879577956795B79524
S1132430F111F8CFFAF4BB0F11F460FF1BC06F5F0A
S11324407F4F8F4F9F4F16C0882311F096E911C01C
S1132450772321F09EE8872F762F05C0662371F03D
S113246096E8862F70E060E02AF09A95660F771F51
S1132470881FDAF7880F9695879597F9089597F945
S11324809F6780E870E060E008959FEF80EC089516
S113249000240A941616170618060906089500243F
S11324A00A9412161306140605060895092E0394B9
S11324B0000C11F4882352F0BB0F40F4BF2B11F42D
S11324C060FF04C06F5F7F4F8F4F9F4F089557FD8C
S11324D09058440F551F59F05F3F71F04795880F8E
S11324E097FB991F61F09F3F79F087950895121625
S11324F013061406551FF2CF4695F1DF08C01616D1
S113250017061806991FF1CF869571056105089481
S11325100895E894BB2766277727CB0197F9089598
S11325200E94A3120C9456120E94481238F00E9482
S11325304F1220F0952311F00C943F120C94451285
S113254011240C948A120E94671270F3959FC1F3B0
S1132550950F50E0551F629FF001729FBB27F00D4D
S1132560B11D639FAA27F00DB11DAA1F649F6627A2
S1132570B00DA11D661F829F2227B00DA11D621FF1
S1132580739FB00DA11D621F839FA00D611D221FAB
S1132590749F3327A00D611D231F849F600D211D8F
S11325A0822F762F6A2F11249F5750409AF0F1F012
S11325B088234AF0EE0FFF1FBB1F661F771F881F7B
S11325C091505040A9F79E3F510580F00C943F1262
S11325D00C948A125F3FE4F3983ED4F38695779582
S11325E06795B795F795E7959F5FC1F7FE2B880F21
S11325F0911D9695879597F90895AA1BBB1B51E1E8
S113260007C0AA1FBB1FA617B70710F0A61BB70B5E
S1132610881F991F5A95A9F780959095BC01CD0103
S1132620089597FB072E16F4009407D077FD09D080
S11326300E94FD1207FC05D03EF4909581959F4FB2
S11326400895709561957F4F0895A1E21A2EAA1BF3
S1132650BB1BFD010DC0AA1FBB1FEE1FFF1FA2174E
S1132660B307E407F50720F0A21BB30BE40BF50B4B
S1132670661F771F881F991F1A9469F760957095D4
S1132680809590959B01AC01BD01CF010895052E65
S113269097FB1EF400940E945E1357FD07D00E941E
S11326A0251307FC03D04EF40C945E13509540950B
S11326B0309521953F4F4F4F5F4F089590958095EA
S11326C0709561957F4F8F4F9F4F0895EE0FFF1FB9
S11326D00590F491E02D09948F929F92AF92BF924E
S11326E0CF92DF92EF92FF92CF93DF93EC01688158
S11326F079818A819B81611571058105910521F498
S113270064E279ED8BE597E02DE133EF41E050E0B1
S11327100E94471349015A019B01AC01A7EAB1E4A5
S11327200E94C5166B017C01ACEEB4EFA5019401C7
S11327300E94D316DC01CB018C0D9D1DAE1DBF1D67
S1132740B7FF03C00197A109B04888839983AA837E
S1132750BB839F77DF91CF91FF90EF90DF90CF9075
S1132760BF90AF909F908F9008950E946C1308952E
S113277080E091E00E946C130895A0E0B0E08093A3
S1132780000190930101A0930201B0930301089505
S11327909111089581548A5108F4805E855A0895F0
S11327A0CF93DF93EC012B8120FF33C026FF0AC0B7
S11327B02F7B2B838E819F8101969F838E838A81B9
S11327C090E029C022FF0FC0E881F9818081082EA2
S11327D0000C990B009719F420622B831AC03196D0
S11327E0F983E8830EC0EA85FB85099597FF09C044
S11327F02B81019611F080E201C080E1822B8B8352
S113280008C02E813F812F5F3F4F3F832E8399273E
S113281002C08FEF9FEFDF91CF910895A0E0B0E069
S1132820E4E1F4E10C94E616AE01495F5F4FDA018E
S11328306D917D91AD0106EF12E0F80182819381E3
S1132840DC0113962C911397286013962C930E9405
S11328503414D8011296ED91FC9113972381277FAC
S11328602383E4E00C940217ABE0B0E0EAE3F4E184
S11328700C94D8166C017B018A01FC011782168224
S1132880838181FFCCC1CE0101963C01F601938185
S1132890F70193FD859193FF81917F01882309F4CA
S11328A0BAC1853239F493FD859193FF81917F01FB
S11328B0853229F4B60190E00E942B16E7CF912CC3
S11328C0212C312CFFE1F315D8F08B3279F038F458
S11328D0803279F08332A1F4232D20611DC08D3222
S11328E061F0803369F4232D216016C0832D82604A
S11328F0382EE32DE4603E2E2AC0F32DF8601DC06F
S113290037FC2DC020ED280F2A3040F08E32B9F468
S113291036FC81C1232D2064322E19C036FE06C038
S11329208AE0989E200D1124922E11C0EAE02E9E7A
S1132930200D1124222EF32DF0623F2E08C08C3678
S113294021F4832D8068382E02C0883641F4F701C3
S113295093FD859193FF81917F018111B3CF982FCE
S11329609F7D9554933028F40C5F1F4F9FE3998308
S11329700DC0833631F0833771F0833509F059C0C7
S113298021C0F801808189830E5F1F4F88248394BE
S1132990912C530113C02801F2E04F0E511CF80191
S11329A0A080B18036FE03C0692D70E002C06FEFD5
S11329B07FEFC5010E9420164C018201F32DFF77A1
S11329C03F2E16C0280122E0420E511CF801A080BF
S11329D0B18036FE03C0692D70E002C06FEF7FEF57
S11329E0C5010E9415164C01F32DF0683F2E82019B
S11329F033FC1BC0822D90E088169906B0F4B60112
S1132A0080E290E00E942B162A94F4CFF50137FC63
S1132A10859137FE81915F01B60190E00E942B16EB
S1132A2021102A9421E0821A91088114910471F7EB
S1132A30E8C0843611F0893641F5F80137FE07C045
S1132A4060817181828193810C5F1F4F08C0608116
S1132A507181072E000C880B990B0E5F1F4FF32D0D
S1132A60FF763F2E97FF09C09095809570956195EC
S1132A707F4F8F4F9F4FF0683F2E2AE030E0A30135
S1132A800E946716882E861845C0853731F4232D99
S1132A902F7EB22E2AE030E025C0932D997FB92EE7
S1132AA08F36C1F018F4883579F0B5C0803719F045
S1132AB0883721F0B0C0E92FE061BE2EB4FE0DC00E
S1132AC0FB2DF460BF2E09C034FE0AC0292F2660F6
S1132AD0B22E06C028E030E005C020E130E002C09C
S1132AE020E132E0F801B7FE07C060817181828184
S1132AF093810C5F1F4F06C06081718180E090E07C
S1132B000E5F1F4FA3010E946716882E8618FB2DA7
S1132B10FF773F2E36FE0DC0232D2E7FA22E891463
S1132B2058F434FE0BC032FC09C0832D8E7EA82ECF
S1132B3005C0B82CA32C03C0B82C01C0B92CA4FE2A
S1132B400FC0FE01E80DF11D8081803321F49A2D20
S1132B50997EA92E09C0A2FE06C0B394B39404C002
S1132B608A2D867809F0B394A3FC11C0A0FE06C098
S1132B70B21488F4280C922C9B180EC0B21460F482
S1132B80B60180E290E00E942B16B394F7CFB21402
S1132B9018F42B1802C0982C212CA4FE10C0B601E6
S1132BA080E390E00E942B16A2FE17C0A1FC03C094
S1132BB088E790E002C088E590E0B6010CC08A2D59
S1132BC0867859F0A1FE02C08BE201C080E2A7FC26
S1132BD08DE2B60190E00E942B16891438F4B601F8
S1132BE080E390E00E942B169A94F7CF8A94F30125
S1132BF0E80DF11D8081B60190E00E942B16811032
S1132C00F5CF222009F442CEB60180E290E00E9482
S1132C102B162A94F6CFF6018681978102C08FEF96
S1132C209FEF2B96E2E10C94F416FC0105906150A1
S1132C3070400110D8F7809590958E0F9F1F0895CE
S1132C40FC016150704001900110D8F78095909577
S1132C508E0F9F1F08950F931F93CF93DF93FB0154
S1132C60238121FD03C08FEF9FEF2CC022FF16C0EC
S1132C7046815781248135814217530744F4A0814A
S1132C80B1819D012F5F3F4F318320838C93268137
S1132C9037812F5F3F4F3783268314C08B01EC01AC
S1132CA0FB010084F185E02D0995892BE1F6D8011B
S1132CB016968D919C911797019617969C938E93D7
S1132CC01697CE01DF91CF911F910F910895FA01CC
S1132CD0AA27283051F1203181F1E8946F936E7F57
S1132CE06E5F7F4F8F4F9F4FAF4FB1E03ED0B4E048
S1132CF03CD0670F781F891F9A1FA11D680F791F89
S1132D008A1F911DA11D6A0F711D811D911DA11D99
S1132D1020D009F468943F912AE0269F11243019A9
S1132D20305D3193DEF6CF010895462F4770405D44
S1132D304193B3E00FD0C9F7F6CF462F4F70405DF3
S1132D404A3318F0495D31FD4052419302D0A9F74E
S1132D50EACFB4E0A6959795879577956795BA9548
S1132D60C9F700976105710508959B01AC010A2E0E
S1132D7006945795479537952795BA95C9F7620FE5
S1132D80731F841F951FA01D08950E940F17A59FF0
S1132D90900DB49F900DA49F800D911D1124089552
S1132DA0B7FF0C94C5160E94C516821B930B089599
S1132DB02F923F924F925F926F927F928F929F9247
S1132DC0AF92BF92CF92DF92EF92FF920F931F9335
S1132DD0CF93DF93CDB7DEB7CA1BDB0B0FB6F894E6
S1132DE0DEBF0FBECDBF09942A88398848885F8426
S1132DF06E847D848C849B84AA84B984C884DF8097
S1132E00EE80FD800C811B81AA81B981CE0FD11D7A
S1132E100FB6F894DEBF0FBECDBFED010895A29F9B
S1132E20B001B39FC001A39F700D811D1124911D9A
S1132E30B29F700D811D1124911D0895F894FFCF48
S1132E4001000000FFFF0000000300000000670D08
S1132E509F0D0000323F065B4F666D7D077F6F77E5
S1132E607C395E79716F7B9224CF79CF73ED13E750
S1132E7073E77B4F12EF7BEF737E48787F437F7E4F
S1132E80407E7F434F00025240F40100002C0100B9
S1132E9000C8000000000F060B000B4D6564697547
S10F2EA06D00536C6F7700466173740082
S9030000FC
